{
  "_format": "hh-sol-artifact-1",
  "contractName": "LiquidationOperator",
  "sourceName": "contracts/LiquidationOperator.sol",
  "abi": [
    {
      "inputs": [],
      "stateMutability": "nonpayable",
      "type": "constructor"
    },
    {
      "inputs": [],
      "name": "health_factor_decimals",
      "outputs": [
        {
          "internalType": "uint8",
          "name": "",
          "type": "uint8"
        }
      ],
      "stateMutability": "view",
      "type": "function"
    },
    {
      "inputs": [],
      "name": "operate",
      "outputs": [],
      "stateMutability": "nonpayable",
      "type": "function"
    },
    {
      "inputs": [
        {
          "internalType": "address",
          "name": "",
          "type": "address"
        },
        {
          "internalType": "uint256",
          "name": "amount0",
          "type": "uint256"
        },
        {
          "internalType": "uint256",
          "name": "",
          "type": "uint256"
        },
        {
          "internalType": "bytes",
          "name": "",
          "type": "bytes"
        }
      ],
      "name": "uniswapV2Call",
      "outputs": [],
      "stateMutability": "nonpayable",
      "type": "function"
    },
    {
      "stateMutability": "payable",
      "type": "receive"
    }
  ],
  "bytecode": "0x60a060405234801561001057600080fd5b5060405163e6a4390560e01b815273a0b86991c6218b36c1d19d4a2e9eb0ce3606eb48600482015273c02aaa39b223fe8d0a0e5c4f27ead9083c756cc26024820152735c69bee701ef814a2b6a3edd4b1652cb9cc5aa6f9063e6a439059060440160206040518083038186803b15801561008957600080fd5b505afa15801561009d573d6000803e3d6000fd5b505050506040513d601f19601f820116820180604052508101906100c191906100df565b60601b6001600160601b0319166080526401e48607b760005561010f565b6000602082840312156100f157600080fd5b81516001600160a01b038116811461010857600080fd5b9392505050565b60805160601c610b896101406000396000818160b10152818160e301528181610368015261057f0152610b896000f3fe6080604052600436106100385760003560e01c806310d1e85c146100445780637159a61814610066578063ad6788961461007b57600080fd5b3661003f57005b600080fd5b34801561005057600080fd5b5061006461005f366004610849565b6100a6565b005b34801561007257600080fd5b50610064610415565b34801561008757600080fd5b50610090601281565b60405160ff909116815260200160405180910390f35b336001600160a01b037f000000000000000000000000000000000000000000000000000000000000000016146100de576100de610b27565b6000807f00000000000000000000000000000000000000000000000000000000000000006001600160a01b0316630902f1ac6040518163ffffffff1660e01b815260040160606040518083038186803b15801561013a57600080fd5b505afa15801561014e573d6000803e3d6000fd5b505050506040513d601f19601f820116820180604052508101906101729190610914565b5060405163095ea7b360e01b8152737d2768de32b0b80b7a3454c06bdac94a69ddc7a96004820152602481018990526001600160701b03928316945091169150869073a0b86991c6218b36c1d19d4a2e9eb0ce3606eb489063095ea7b390604401600060405180830381600087803b1580156101ed57600080fd5b505af1158015610201573d6000803e3d6000fd5b505060405162a718a960e01b815273c02aaa39b223fe8d0a0e5c4f27ead9083c756cc2600482015273a0b86991c6218b36c1d19d4a2e9eb0ce3606eb4860248201527363f6037d3e9d51ad865056bf7792029803b6eefd60448201526064810184905260006084820152737d2768de32b0b80b7a3454c06bdac94a69ddc7a9925062a718a9915060a401600060405180830381600087803b1580156102a557600080fd5b505af11580156102b9573d6000803e3d6000fd5b50506040516370a0823160e01b81523060048201526000925073c02aaa39b223fe8d0a0e5c4f27ead9083c756cc291506370a082319060240160206040518083038186803b15801561030a57600080fd5b505afa15801561031e573d6000803e3d6000fd5b505050506040513d601f19601f820116820180604052508101906103429190610964565b90506000610351838587610707565b60405163a9059cbb60e01b81526001600160a01b037f00000000000000000000000000000000000000000000000000000000000000001660048201526024810182905290915073c02aaa39b223fe8d0a0e5c4f27ead9083c756cc29063a9059cbb90604401602060405180830381600087803b1580156103d057600080fd5b505af11580156103e4573d6000803e3d6000fd5b505050506040513d601f19601f8201168201806040525081019061040891906108eb565b5050505050505050505050565b604051632fe4a15f60e21b81527363f6037d3e9d51ad865056bf7792029803b6eefd600482015260009081908190819081908190737d2768de32b0b80b7a3454c06bdac94a69ddc7a99063bf92857c9060240160c06040518083038186803b15801561048057600080fd5b505afa158015610494573d6000803e3d6000fd5b505050506040513d601f19601f820116820180604052508101906104b8919061097d565b949a509298509096509450925090506104d36012600a610a44565b811061053e5760405162461bcd60e51b815260206004820152602f60248201527f43616e6e6f74206c69717569646174653b206865616c746820666163746f722060448201526e6d7573742062652062656c6f77203160881b60648201526084015b60405180910390fd5b6000805460405163022c0d9f60e01b8152600481019190915260248101919091523060448201526080606482015260016084820152600960fa1b60a48201527f00000000000000000000000000000000000000000000000000000000000000006001600160a01b03169063022c0d9f9060c401600060405180830381600087803b1580156105cb57600080fd5b505af11580156105df573d6000803e3d6000fd5b50506040516370a0823160e01b81523060048201526000925073c02aaa39b223fe8d0a0e5c4f27ead9083c756cc291506370a082319060240160206040518083038186803b15801561063057600080fd5b505afa158015610644573d6000803e3d6000fd5b505050506040513d601f19601f820116820180604052508101906106689190610964565b604051632e1a7d4d60e01b81526004810182905290915073c02aaa39b223fe8d0a0e5c4f27ead9083c756cc290632e1a7d4d90602401600060405180830381600087803b1580156106b857600080fd5b505af11580156106cc573d6000803e3d6000fd5b50506040513392504780156108fc029250906000818181858888f193505050501580156106fd573d6000803e3d6000fd5b5050505050505050565b600080841161076d5760405162461bcd60e51b815260206004820152602c60248201527f556e697377617056324c6962726172793a20494e53554646494349454e545f4f60448201526b155514155517d05353d5539560a21b6064820152608401610535565b60008311801561077d5750600082115b6107da5760405162461bcd60e51b815260206004820152602860248201527f556e697377617056324c6962726172793a20494e53554646494349454e545f4c604482015267495155494449545960c01b6064820152608401610535565b60006107e68585610af1565b6107f2906103e8610af1565b905060006108008685610b10565b61080c906103e5610af1565b905061081881836109df565b6108239060016109c7565b9695505050505050565b80516001600160701b038116811461084457600080fd5b919050565b60008060008060006080868803121561086157600080fd5b85356001600160a01b038116811461087857600080fd5b94506020860135935060408601359250606086013567ffffffffffffffff808211156108a357600080fd5b818801915088601f8301126108b757600080fd5b8135818111156108c657600080fd5b8960208285010111156108d857600080fd5b9699959850939650602001949392505050565b6000602082840312156108fd57600080fd5b8151801515811461090d57600080fd5b9392505050565b60008060006060848603121561092957600080fd5b6109328461082d565b92506109406020850161082d565b9150604084015163ffffffff8116811461095957600080fd5b809150509250925092565b60006020828403121561097657600080fd5b5051919050565b60008060008060008060c0878903121561099657600080fd5b865195506020870151945060408701519350606087015192506080870151915060a087015190509295509295509295565b600082198211156109da576109da610b3d565b500190565b6000826109fc57634e487b7160e01b600052601260045260246000fd5b500490565b600181815b80851115610a3c578160001904821115610a2257610a22610b3d565b80851615610a2f57918102915b93841c9390800290610a06565b509250929050565b600061090d60ff841683600082610a5d57506001610aeb565b81610a6a57506000610aeb565b8160018114610a805760028114610a8a57610aa6565b6001915050610aeb565b60ff841115610a9b57610a9b610b3d565b50506001821b610aeb565b5060208310610133831016604e8410600b8410161715610ac9575081810a610aeb565b610ad38383610a01565b8060001904821115610ae757610ae7610b3d565b0290505b92915050565b6000816000190483118215151615610b0b57610b0b610b3d565b500290565b600082821015610b2257610b22610b3d565b500390565b634e487b7160e01b600052600160045260246000fd5b634e487b7160e01b600052601160045260246000fdfea26469706673582212207d72e7982254515b24bf624f67d1faf9050e8668ca28973e14f72439266387b464736f6c63430008070033",
  "linkReferences": {},
  "deployedLinkReferences": {}
}