{
  "_format": "hh-sol-artifact-1",
  "contractName": "LiquidationOperator",
  "sourceName": "contracts/LiquidationOperator.sol",
  "abi": [
    {
      "inputs": [],
      "stateMutability": "nonpayable",
      "type": "constructor"
    },
    {
      "inputs": [],
      "name": "health_factor_decimals",
      "outputs": [
        {
          "internalType": "uint8",
          "name": "",
          "type": "uint8"
        }
      ],
      "stateMutability": "view",
      "type": "function"
    },
    {
      "inputs": [],
      "name": "operate",
      "outputs": [],
      "stateMutability": "nonpayable",
      "type": "function"
    },
    {
      "inputs": [
        {
          "internalType": "address",
          "name": "",
          "type": "address"
        },
        {
          "internalType": "uint256",
          "name": "",
          "type": "uint256"
        },
        {
          "internalType": "uint256",
          "name": "amount1",
          "type": "uint256"
        },
        {
          "internalType": "bytes",
          "name": "",
          "type": "bytes"
        }
      ],
      "name": "uniswapV2Call",
      "outputs": [],
      "stateMutability": "nonpayable",
      "type": "function"
    },
    {
      "stateMutability": "payable",
      "type": "receive"
    }
  ],
  "bytecode": "0x60c060405234801561001057600080fd5b5060405163e6a4390560e01b8152732260fac5e5542a773aa44fbcfedf7c193bc2c599600482015273dac17f958d2ee523a2206206994597c13d831ec76024820152735c69bee701ef814a2b6a3edd4b1652cb9cc5aa6f9063e6a439059060440160206040518083038186803b15801561008957600080fd5b505afa15801561009d573d6000803e3d6000fd5b505050506040513d601f19601f820116820180604052508101906100c1919061019e565b60601b6001600160601b03191660805260405163e6a4390560e01b8152732260fac5e5542a773aa44fbcfedf7c193bc2c599600482015273c02aaa39b223fe8d0a0e5c4f27ead9083c756cc26024820152735c69bee701ef814a2b6a3edd4b1652cb9cc5aa6f9063e6a439059060440160206040518083038186803b15801561014957600080fd5b505afa15801561015d573d6000803e3d6000fd5b505050506040513d601f19601f82011682018060405250810190610181919061019e565b60601b6001600160601b03191660a05263773594006000556101ce565b6000602082840312156101b057600080fd5b81516001600160a01b03811681146101c757600080fd5b9392505050565b60805160601c60a05160601c610e8161021a6000396000818161018e015281816104d501526105b701526000818160b10152818160e30152818161041301526107910152610e816000f3fe6080604052600436106100385760003560e01c806310d1e85c146100445780637159a61814610066578063ad6788961461007b57600080fd5b3661003f57005b600080fd5b34801561005057600080fd5b5061006461005f366004610af9565b6100a6565b005b34801561007257600080fd5b5061006461062a565b34801561008757600080fd5b50610090601281565b60405160ff909116815260200160405180910390f35b336001600160a01b037f000000000000000000000000000000000000000000000000000000000000000016146100de576100de610e1f565b6000807f00000000000000000000000000000000000000000000000000000000000000006001600160a01b0316630902f1ac6040518163ffffffff1660e01b815260040160606040518083038186803b15801561013a57600080fd5b505afa15801561014e573d6000803e3d6000fd5b505050506040513d601f19601f820116820180604052508101906101729190610bc4565b506001600160701b031691506001600160701b031691506000807f00000000000000000000000000000000000000000000000000000000000000006001600160a01b0316630902f1ac6040518163ffffffff1660e01b815260040160606040518083038186803b1580156101e557600080fd5b505afa1580156101f9573d6000803e3d6000fd5b505050506040513d601f19601f8201168201806040525081019061021d9190610bc4565b5060405163095ea7b360e01b8152737d2768de32b0b80b7a3454c06bdac94a69ddc7a96004820152602481018a90526001600160701b03928316945091169150879073dac17f958d2ee523a2206206994597c13d831ec79063095ea7b390604401600060405180830381600087803b15801561029857600080fd5b505af11580156102ac573d6000803e3d6000fd5b505060405162a718a960e01b8152732260fac5e5542a773aa44fbcfedf7c193bc2c599600482015273dac17f958d2ee523a2206206994597c13d831ec760248201527359ce4a2ac5bc3f5f225439b2993b86b42f6d3e9f60448201526064810184905260006084820152737d2768de32b0b80b7a3454c06bdac94a69ddc7a9925062a718a9915060a401600060405180830381600087803b15801561035057600080fd5b505af1158015610364573d6000803e3d6000fd5b50506040516370a0823160e01b815230600482015260009250732260fac5e5542a773aa44fbcfedf7c193bc2c59991506370a082319060240160206040518083038186803b1580156103b557600080fd5b505afa1580156103c9573d6000803e3d6000fd5b505050506040513d601f19601f820116820180604052508101906103ed9190610c14565b905060006103fc838888610919565b60405163a9059cbb60e01b81526001600160a01b037f000000000000000000000000000000000000000000000000000000000000000016600482015260248101829052909150732260fac5e5542a773aa44fbcfedf7c193bc2c5999063a9059cbb90604401602060405180830381600087803b15801561047b57600080fd5b505af115801561048f573d6000803e3d6000fd5b505050506040513d601f19601f820116820180604052508101906104b39190610b9b565b506104be8183610e08565b60405163a9059cbb60e01b81526001600160a01b037f000000000000000000000000000000000000000000000000000000000000000016600482015260248101829052909250732260fac5e5542a773aa44fbcfedf7c193bc2c5999063a9059cbb90604401602060405180830381600087803b15801561053d57600080fd5b505af1158015610551573d6000803e3d6000fd5b505050506040513d601f19601f820116820180604052508101906105759190610b9b565b5060006105838387876109fe565b60405163022c0d9f60e01b8152600060048201819052602482018390523060448301526080606483015260848201529091507f00000000000000000000000000000000000000000000000000000000000000006001600160a01b03169063022c0d9f9060a401600060405180830381600087803b15801561060357600080fd5b505af1158015610617573d6000803e3d6000fd5b5050505050505050505050505050505050565b604051632fe4a15f60e21b81527359ce4a2ac5bc3f5f225439b2993b86b42f6d3e9f600482015260009081908190819081908190737d2768de32b0b80b7a3454c06bdac94a69ddc7a99063bf92857c9060240160c06040518083038186803b15801561069557600080fd5b505afa1580156106a9573d6000803e3d6000fd5b505050506040513d601f19601f820116820180604052508101906106cd9190610c2d565b949a509298509096509450925090506106e86012600a610d3c565b81106107535760405162461bcd60e51b815260206004820152602f60248201527f43616e6e6f74206c69717569646174653b206865616c746820666163746f722060448201526e6d7573742062652062656c6f77203160881b60648201526084015b60405180910390fd5b6000805460405163022c0d9f60e01b8152600481019290925260248201523060448201526080606482015260016084820152600960fa1b60a48201527f00000000000000000000000000000000000000000000000000000000000000006001600160a01b03169063022c0d9f9060c401600060405180830381600087803b1580156107dd57600080fd5b505af11580156107f1573d6000803e3d6000fd5b50506040516370a0823160e01b81523060048201526000925073c02aaa39b223fe8d0a0e5c4f27ead9083c756cc291506370a082319060240160206040518083038186803b15801561084257600080fd5b505afa158015610856573d6000803e3d6000fd5b505050506040513d601f19601f8201168201806040525081019061087a9190610c14565b604051632e1a7d4d60e01b81526004810182905290915073c02aaa39b223fe8d0a0e5c4f27ead9083c756cc290632e1a7d4d90602401600060405180830381600087803b1580156108ca57600080fd5b505af11580156108de573d6000803e3d6000fd5b50506040513392504780156108fc029250906000818181858888f1935050505015801561090f573d6000803e3d6000fd5b5050505050505050565b600080841161097f5760405162461bcd60e51b815260206004820152602c60248201527f556e697377617056324c6962726172793a20494e53554646494349454e545f4f60448201526b155514155517d05353d5539560a21b606482015260840161074a565b60008311801561098f5750600082115b6109ab5760405162461bcd60e51b815260040161074a90610c77565b60006109b78585610de9565b6109c3906103e8610de9565b905060006109d18685610e08565b6109dd906103e5610de9565b90506109e98183610cd7565b6109f4906001610cbf565b9695505050505050565b6000808411610a635760405162461bcd60e51b815260206004820152602b60248201527f556e697377617056324c6962726172793a20494e53554646494349454e545f4960448201526a1394155517d05353d5539560aa1b606482015260840161074a565b600083118015610a735750600082115b610a8f5760405162461bcd60e51b815260040161074a90610c77565b6000610a9d856103e5610de9565b90506000610aab8483610de9565b9050600082610abc876103e8610de9565b610ac69190610cbf565b9050610ad28183610cd7565b979650505050505050565b80516001600160701b0381168114610af457600080fd5b919050565b600080600080600060808688031215610b1157600080fd5b85356001600160a01b0381168114610b2857600080fd5b94506020860135935060408601359250606086013567ffffffffffffffff80821115610b5357600080fd5b818801915088601f830112610b6757600080fd5b813581811115610b7657600080fd5b896020828501011115610b8857600080fd5b9699959850939650602001949392505050565b600060208284031215610bad57600080fd5b81518015158114610bbd57600080fd5b9392505050565b600080600060608486031215610bd957600080fd5b610be284610add565b9250610bf060208501610add565b9150604084015163ffffffff81168114610c0957600080fd5b809150509250925092565b600060208284031215610c2657600080fd5b5051919050565b60008060008060008060c08789031215610c4657600080fd5b865195506020870151945060408701519350606087015192506080870151915060a087015190509295509295509295565b60208082526028908201527f556e697377617056324c6962726172793a20494e53554646494349454e545f4c604082015267495155494449545960c01b606082015260800190565b60008219821115610cd257610cd2610e35565b500190565b600082610cf457634e487b7160e01b600052601260045260246000fd5b500490565b600181815b80851115610d34578160001904821115610d1a57610d1a610e35565b80851615610d2757918102915b93841c9390800290610cfe565b509250929050565b6000610bbd60ff841683600082610d5557506001610de3565b81610d6257506000610de3565b8160018114610d785760028114610d8257610d9e565b6001915050610de3565b60ff841115610d9357610d93610e35565b50506001821b610de3565b5060208310610133831016604e8410600b8410161715610dc1575081810a610de3565b610dcb8383610cf9565b8060001904821115610ddf57610ddf610e35565b0290505b92915050565b6000816000190483118215151615610e0357610e03610e35565b500290565b600082821015610e1a57610e1a610e35565b500390565b634e487b7160e01b600052600160045260246000fd5b634e487b7160e01b600052601160045260246000fdfea264697066735822122042ae5d52f7e88a12e4b1ccbfaf9d01e14bbc7bbf6c529376b22fb8ca8d33683864736f6c63430008070033",
  "linkReferences": {},
  "deployedLinkReferences": {}
}